:100000000C942A000C9434000C9434000C943400AA
:100010000C9434000C9434000C9434000C94340090
:100020000C9434000C9434000C9434000C94340080
:100030000C9434000C9434000C9434000C94340070
:100040000C9434000C9434000C9434000C94340060
:100050000C94340011241FBECFE5D4E0DEBFCDBF29
:100060000E9448010C940B060C940000DF93CF9380
:1000700000D00F92CDB7DEB78B8384E690E09A83F1
:1000800089830CC089819A8101979A8389838981A8
:100090009A810097B9F78B8181508B838B8188235C
:1000A000B1F70F900F900F90CF91DF910895DF93EC
:1000B000CF930F92CDB7DEB78983ABE2B0E0EBE22E
:1000C000F0E0808180648C93ECE2F0E089818083B1
:1000D000EBE2F0E08081882F90E0807490700097D0
:1000E000B9F30F90CF91DF910895DF93CF9300D0B4
:1000F0000F92CDB7DEB78B831A821982A5E3B0E0E9
:10010000E5E3F0E080818F778C93A8E3B0E0E8E34B
:10011000F0E080818F778C9380E190E09A838983EF
:1001200063C0A8E3B0E0E8E3F0E080818F778C93D0
:1001300089819A818031910539F4A8E3B0E0E8E340
:10014000F0E080818F7D8C9389819A818F30910539
:1001500039F4A8E3B0E0E8E3F0E080818F7D8C9390
:1001600089819A818E30910539F4A8E3B0E0E8E303
:10017000F0E0808180628C9389819A818D30910535
:1001800039F4A8E3B0E0E8E3F0E0808180628C938A
:1001900089819A818D309105ACF48B81882344F458
:1001A000A8E3B0E0E8E3F0E0808180628C9307C0D0
:1001B000A8E3B0E0E8E3F0E080818F7D8C938B8151
:1001C000880F8B838AE00E943600A8E3B0E0E8E362
:1001D000F0E0808180688C938AE00E9436008981FB
:1001E0009A8101979A83898389819A8118161906C1
:1001F0000CF497CF8AE00E943600A5E3B0E0E5E377
:10020000F0E0808180688C930F900F900F90CF91D9
:10021000DF910895DF93CF930F92CDB7DEB7898337
:100220008981882F90E085759070880F991F282FFD
:100230008981882F90E08A7A907095958795822B96
:1002400089838981882F90E083739070880F991F2C
:10025000880F991F282F8981882F90E08C7C9070BF
:100260009595879595958795822B89838981882F88
:1002700090E082959295907F9827807F9827982F7D
:10028000898182958F70892B0F90CF91DF9108958E
:10029000DF93CF93CDB7DEB766970FB6F894DEBF86
:1002A0000FBECDBF1C8A8FE78B8B8FE78A8B82E7CF
:1002B000898B188A81E08F8781E08E8781E08D8726
:1002C00081E08C871B868FEF8A8781E089871F8278
:1002D0001E821D821C821B821A821982A7E3B0E053
:1002E000E7E3F0E0808180618C93EAE3F0E0108244
:1002F000A1E3B0E0E1E3F0E0808180688C93A7E3C4
:10030000B0E0E7E3F0E0808180628C93A4E3B0E0AA
:10031000E4E3F0E0808180688C93A5E3B0E0E5E35E
:10032000F0E0808180688C93A7E3B0E0E7E3F0E041
:10033000808180688C93A2E3B0E0E2E3F0E080810A
:100340008F7B8C93A1E3B0E0E1E3F0E080818F7BD1
:100350008C93A2E3B0E0E2E3F0E080818F7D8C93A8
:10036000A1E3B0E0E1E3F0E080818F7D8C93A1E335
:10037000B0E0E1E3F0E0808180618C93A7E3B0E03E
:10038000E7E3F0E0808188608C93A1E3B0E0E1E3F3
:10039000F0E080818B7F8C93A1E3B0E0E1E3F0E0BB
:1003A00080818E7F8C93A1E3B0E0E1E3F0E0808177
:1003B00082608C93A4E3B0E0E4E3F0E080818064A9
:1003C0008C93A5E3B0E0E5E3F0E080818F7B8C9334
:1003D000A1E3B0E0E1E3F0E08081877F8C93A2E3CA
:1003E000B0E0E2E3F0E0808188608C93A4E3B0E0C9
:1003F000E4E3F0E0808181608C93A5E3B0E0E5E385
:10040000F0E080818E7F8C93AAE2B0E0EAE2F0E037
:10041000808188618C93A0E4B0E0E0E4F0E080812A
:1004200086688C93E0E4F0E01082E9E2F0E08FE08F
:100430008083AFE4B0E0EFE4F0E0808180618C93F2
:10044000AEE4B0E0EEE4F0E0808189608C9355C0CA
:10045000E0E3F0E08081882F90E088709070009752
:1004600009F04BC0A8E3B0E0E8E3F0E080818F7EC4
:100470008C93A2E3B0E0E2E3F0E0808180688C93AB
:10048000A2E3B0E0E2E3F0E080818F778C93A5E314
:10049000B0E0E5E3F0E0808180648C93A5E3B0E018
:1004A000E5E3F0E080818F7B8C931F8223C0ECE238
:1004B000F0E080818C8B8F81882359F4E0E3F0E0B9
:1004C0008081882F90E084709070009711F481E013
:1004D0008F83E0E3F0E08081882F90E0847090705B
:1004E000009741F08F81882329F083E40E94570010
:1004F0008EE68C8B8C898E36D1F6EBE2F0E0808133
:1005000088230CF0A5CFECE2F0E080818C8B8C8905
:10051000282F30E03E8B2D8B8D899E898936910561
:1005200009F4C0C02D893E892A3631058CF58D89A4
:100530009E898136910509F4AAC12D893E8922360A
:1005400031059CF48D899E898334910509F44EC24E
:100550002D893E892A35310509F4D5C18D899E89B9
:100560008234910509F47CC0C8CF2D893E89233699
:10057000310509F4D4C18D899E89833691050CF427
:100580006BC02D893E892636310509F46DC2B5CF81
:100590008D899E898337910509F4B2C22D893E89E0
:1005A000243731059CF48D899E898F36910509F495
:1005B0009CC02D893E892237310509F4A2C08D895E
:1005C0009E898D36910509F486C197CF2D893E8984
:1005D0002637310569F08D899E898A37910509F49E
:1005E00086C12D893E892437310509F44EC085CF57
:1005F00084E40E94570083E50E9457008FE40E9424
:10060000570080E20E94570086E50E94570085E669
:100610000E94570082E70E94570083E70E9457001C
:1006200089E60E9457008FE60E9457008EE60E94DE
:10063000570080E20E94570081E30E9457008EE23B
:100640000E94570081E30E9457008AE00E945700F1
:100650008DE00E94570051CF89850E9457004DCFF1
:100660008985813009F049CFABE2B0E0EBE2F0E000
:10067000808182608C93E0E4F0E01082E9E2F0E0B7
:1006800084E0808382E0898738CFEBE2F0E08081EC
:100690008823DCF7ECE2F0E080818B8B8B890E9471
:1006A00075002BCFEBE2F0E080818823DCF7ECE2F1
:1006B000F0E080818C8B8C89823749F482E7898BCA
:1006C000A5E3B0E0E5E3F0E080818E7F8C938C8938
:1006D000863609F012CF86E6898BA5E3B0E0E5E324
:1006E000F0E0808181608C9308CFEBE2F0E08081C4
:1006F0008823DCF7ECE2F0E080818C8B8C89888B9E
:10070000FCCEEBE2F0E080818823DCF7ECE2F0E065
:1007100080818C8B8C89813311F5E8E4F0E01182C3
:10072000108281E38F87A2E3B0E0E2E3F0E0808112
:1007300080648C93A1E3B0E0E1E3F0E08081806429
:100740008C93A2E3B0E0E2E3F0E0808180628C93DE
:10075000A1E3B0E0E1E3F0E0808180628C938C89DA
:10076000833311F583E38F87E8E4F0E01182108290
:10077000A2E3B0E0E2E3F0E080818F7B8C93A1E321
:10078000B0E0E1E3F0E0808180648C93A2E3B0E02C
:10079000E2E3F0E080818F7D8C93A1E3B0E0E1E3C0
:1007A000F0E0808180628C938C89843311F584E33E
:1007B0008F87E8E4F0E011821082A2E3B0E0E2E388
:1007C000F0E080818F7B8C93A1E3B0E0E1E3F0E087
:1007D00080818F7B8C93A2E3B0E0E2E3F0E0808144
:1007E0008F7D8C93A1E3B0E0E1E3F0E080818F7D29
:1007F0008C938C89823311F5A2E3B0E0E2E3F0E060
:10080000808180648C93A1E3B0E0E1E3F0E080813B
:1008100080648C93A2E3B0E0E2E3F0E080818F7D1E
:100820008C93A1E3B0E0E1E3F0E0808180628C93FF
:10083000E8E4F0E01182108282E38F878C898533AF
:1008400009F05BCEA2E3B0E0E2E3F0E080818F7BD1
:100850008C93A1E3B0E0E1E3F0E080818F7B8C93A7
:10086000A2E3B0E0E2E3F0E080818F7D8C93A1E32E
:10087000B0E0E1E3F0E080818F7D8C93E8E4F0E08C
:1008800080E197E29183808385E38F8736CEEBE228
:10089000F0E080818823DCF7ECE2F0E080818C8B53
:1008A0008C89813311F481E38E878C89823311F432
:1008B00082E38E878C89833311F483E38E878C895E
:1008C000843311F484E38E878C89853309F015CE47
:1008D00085E38E8712CEEBE2F0E080818823DCF79F
:1008E000ECE2F0E080818C8B8C898C8706CEEBE289
:1008F000F0E080818823DCF7ECE2F0E080818C8BF3
:100900008C898B87FACDEBE2F0E080818823DCF7DD
:10091000ECE2F0E080818C8B8C898A87EECD84E7D5
:100920000E9457008B890E94570080E20E94570066
:1009300084E50E9457008A890E94570080E20E9445
:10094000570083E70E94570089890E94570080E280
:100950000E9457008FE60E94570088890E94570026
:1009600080E20E94570082E70E9457008F850E9414
:10097000570080E20E94570081E60E9457008E8552
:100980000E94570080E20E94570081E40E945700B5
:100990008D850E94570080E20E9457008DE60E94DC
:1009A00057008C850E94570080E20E9457008AE71A
:1009B0000E9457008B850E94570080E20E945700DA
:1009C0008AE50E9457008A850E94570080E20E94B3
:1009D000570082E60E94570089850E9457008AE0EE
:1009E0000E9457008DE00E94570087CDA8E3B0E039
:1009F000E8E3F0E080818F7E8C93A2E3B0E0E2E355
:100A0000F0E0808180688C93A2E3B0E0E2E3F0E064
:100A100080818F778C931F8223C0ECE2F0E080818D
:100A20008C8B8F81882359F4E0E3F0E08081882F5C
:100A300090E084709070009711F481E08F83E0E380
:100A4000F0E08081882F90E084709070009741F0F2
:100A50008F81882329F083E40E9457008EE68C8BD7
:100A60008C898E36D1F649CDA8E3B0E0E8E3F0E01A
:100A700080818F7E8C93A2E3B0E0E2E3F0E080819E
:100A800080688C93A2E3B0E0E2E3F0E080818F77AE
:100A90008C93A5E3B0E0E5E3F0E0808180648C9383
:100AA000A5E3B0E0E5E3F0E080818F7B8C931F82CB
:100AB00023C0ECE2F0E080818C8B8F81882359F495
:100AC000E0E3F0E08081882F90E0847090700097E0
:100AD00011F481E08F83E0E3F0E08081882F90E0E3
:100AE00084709070009741F08F81882329F083E40F
:100AF0000E9457008EE68C8B8C898E36D1F6FDCC09
:100B00001E821D821C821B82A8E3B0E0E8E3F0E0B5
:100B1000808180618C9373C0ECE2F0E080818C8BEB
:100B200013C0A8E3B0E0E8E3F0E0808188608C9334
:100B3000A8E3B0E0E8E3F0E08081877F8C938B81CD
:100B40009C8101969C838B838B85482F50E0CA0142
:100B50009C01220F331FC9019695982F88279795DE
:100B60008795821B930B840F951F9C018B819C8121
:100B700082179307B0F2E9E3F0E0808188878885E7
:100B80000E9457008D819E8101969E838D838C8566
:100B9000888716C0A8E3B0E0E8E3F0E080818860D1
:100BA0008C93A8E3B0E0E8E3F0E08081877F8C934A
:100BB0008B819C8101969C838B838885815088875B
:100BC0008885882339F78A85482F50E0CA019C011F
:100BD000220F331FC9019695982F882797958795DF
:100BE000821B930B840F951F9A8389832D813E81ED
:100BF00089819A812817390710F08EE68C8B8C89B1
:100C00008E3609F089CFA8E3B0E0E8E3F0E0808118
:0A0C10008F7E8C9372CCF894FFCF16
:00000001FF
